:060000000A128A110C280F
:10000800FE00030EF0000A08F1000A128A154C2FB0
:100018000A128A110F28FA01FB0183120313E30164
:10002800E401E501E601E70183010A128A11C12E04
:100038008312031329088039AE002E08B30029085B
:10004800AE002E07AF002F08B900A81F2C282D28B6
:100058002E28391439080319322833284228390A36
:10006800031D3728382840280030A9000030A80090
:100078000030A7000030A600A8174A280030A900C1
:100088000030A8000030A7000030A6002D088039F5
:10009800AE002E08B3062D08AE002E07AF002F08BD
:1000A800B400AC1F582859285A28341434080319A6
:1000B8005E285F286E28340A031D632864286C288C
:1000C8000030AD000030AC000030AB000030AA00BA
:1000D800AC1776280030AD000030AC000030AB0023
:1000E8000030AA00340803197A287B2880283908A8
:1000F800031D7F28802889280030A9000030A80027
:100108000030A7000030A6007C2B2608AE002E0881
:10011800F2002C080A128A11C1270A128A117308E0
:1001280083120313BF007208BE003E08AE00AF0181
:10013800B001B1013108B8003008B7002F08B60087
:100148002E08B5003F08AE00AF01B001B10131087B
:10015800BD003008BC002F08BB002E08BA002708D5
:10016800AE002E08F2002B080A128A11C1270A12C3
:100178008A11730883120313BF007208BE003E0879
:10018800AE00AF01B001B1012E08B5072F08031169
:100198000318013E0319D128B607300803110318C4
:1001A800013E0319D828B707310803110318013E87
:1001B8000319DF28B8073F08AE00AF01B001B1014D
:1001C8002E08BA072F0803110318013E0319ED285A
:1001D800BB07300803110318013E0319F428BC07B4
:1001E800310803110318013E0319FB28BD0728082D
:1001F800AE002E08F2002A080A128A11C1270A1234
:100208008A11730883120313BF007208BE003E08E8
:10021800AE00AF01B001B1012E08B5072F080311D8
:100228000318013E03191929B607300803110318EA
:10023800013E03192029B707310803110318013EAD
:1002480003192729B8073F08AE00AF01B001B10173
:100258002E08BA072F0803110318013E0319352980
:10026800BB07300803110318013E03193C29BC07DA
:10027800310803110318013E03194329BD0708304B
:10028800AE000310B50DB60DB70DB80DAE0B452970
:100298002708AE002E08F2002A080A128A11C12780
:1002A8000A128A11730883120313BF007208BE0072
:1002B8003E08AE003F08AF00B001B1012E08B507F7
:1002C8002F0803110318013E03196B29B6073008DC
:1002D80003110318013E03197229B70731080311E6
:1002E8000318013E03197929B8072608AE002E081D
:1002F800F2002B080A128A11C1270A128A11730800
:1003080083120313BF007208BE003E08AE003F0808
:10031800AF00B001B1012E08B5072F08031103186B
:10032800013E03199829B607300803110318013E46
:1003380003199F29B707310803110318013E031950
:10034800A629B8070830AE000310B50DB60DB70DD5
:10035800B80DAE0BA8292608AE002E08F2002A0810
:100368000A128A11C1270A128A1173088312031309
:10037800BF007208BE003E08AE003F08AF00B001E3
:10038800B1012E08B5072F0803110318013E031900
:10039800CE29B607300803110318013E0319D529E1
:1003A800B707310803110318013E0319DC29B80700
:1003B8002708AE002E08F2002C080A128A11C1275D
:1003C8000A128A11730883120313BF007208BE0051
:1003D8003E08AE003F08AF00B001B1012E08BA07D1
:1003E8002F0803110318013E0319FB29BB07300826
:1003F80003110318013E0319022ABC07310803112F
:100408000318013E0319092ABD072808AE002E0863
:10041800F2002B080A128A11C1270A128A117308DE
:1004280083120313BF007208BE003E08AE003F08E7
:10043800AF00B001B1012E08BA072F080311031845
:10044800013E0319282ABB07300803110318013E8F
:1004580003192F2ABC07310803110318013E031999
:10046800362ABD072808AE002E08F2002C080A120A
:100478008A11C1270A128A11730883120313BF0055
:100488007208BE003E08AE003F08AF00B001B101DF
:1004980008300310AE0DAF0DB00DB10DFF3E031DBA
:1004A8004D2A2E08BA072F0803110318013E031915
:1004B8005E2ABB07300803110318013E0319652A99
:1004C800BC07310803110318013E03196C2ABD0744
:1004D8003508AE003608AF003708B0003808B1005C
:1004E80018300310B10CB00CAF0CAE0CFF3E031D5E
:1004F800752A2E08BA072F0803110318013E03199D
:10050800862ABB07300803110318013E03198D2AF8
:10051800BC07310803110318013E0319942ABD07CB
:100528000830AE000310B50DB60DB70DB80DAE0B03
:10053800962A39083407AE00AF01AF0D2E08823E67
:10054800BE002F080318013EFF3EBF00C82A013035
:10055800AE000310BA0DBB0DBC0DBD0DAE0BAD2A20
:10056800B81FB72AB82AB92A3A140130AE000310C6
:10057800B50DB60DB70DB80DAE0BBB2AFF30BE07D3
:100588000318BF0AFF30BF07BC1FCB2ACC2AAB2AEF
:10059800B401B81FD02AD12AED2AFF303505AE00A4
:1005A800FF303605AF00FF303705B0007F30380523
:1005B800B100310830042F042E040319E42AE52A77
:1005C800E82AB401B40AED2A3A1CEB2AEC2AED2AEF
:1005D800E52A34080319F12AF22A232B0130BA0735
:1005E800003003180130BB07003003180130BC0786
:1005F800003003180130BD073D1C032B042B232BAF
:100608003A08AE003B08AF003C08B0003D08B10016
:100618000130B200310DB10CB00CAF0CAE0CB20B06
:100628000E2B3108BD003008BC002F08BB002E0877
:10063800BA000130BE070318BF0A0030BF073F08E1
:10064800803AFF0080307F02031D2C2BFF303E02D2
:10065800031C2F2B302B3B2B7F3083120313BD0041
:100668008030BC000030BB000030BA00702B831211
:1006780003133F08803AFF0080307F02031D462B9A
:1006880001303E020318492B4A2B562B00308312A7
:100698000313BD000030BC000030BB000030BA00BE
:1006A800B301702B831203133E08AE002E08B90065
:1006B800FF30BA05FF30BB057F30BC050030BD05F3
:1006C800391C672B682B692BBC173908AE0003103F
:1006D8002E0CAF002F08BD003308AE002E08BD0455
:1006E8003D08A9003C08A8003B08A7003A08A60056
:1006F80008008312031343088039C8004808D00053
:100708004308C8004807C9004908D200C21F8D2BFA
:100718008E2B8F2B521452080319932B942BA42B36
:10072800520A031D982B992BA12B0030C3000030CF
:10073800C2000030C1000030C000C217C301AC2B9A
:100748000030C3000030C2000030C1000030C000DB
:1007580047088039C8004808D100510850060319D5
:10076800B62BB72BB82B50174708C8004807C90045
:100778004908D100C61FC12BC22BC32B51145108E5
:100788000319C72BC82BD82B510A031DCC2BCD2BF3
:10079800D52B0030C7000030C6000030C50000303F
:1007A800C400C617C701E02B0030C7000030C600E0
:1007B8000030C5000030C400520851020318E52B70
:1007C800E62B2A2C501FE92BEA2BEE2B8030C80091
:1007D8004808D0065208C8004808D3005108C80085
:1007E8004808D2005308C8004808D1004008C8008B
:1007F8004808D3004408C8004808C0005308C80087
:100808004808C4004108C8004808D3004508C80083
:100818004808C1005308C8004808C5004208C80075
:100828004808D3004608C8004808C2005308C80052
:100838004808C6004308C8004808D3004708C8004D
:100848004808C3005308C8004808C700D301510826
:10085800C800C9014908CB0052084802CA00031C55
:10086800CB034B08803AFF0080307F02031D3E2CEB
:100878001A304A02031C412C422C7F2C831203138A
:100888004308420441044004031D4B2C4D2C013005
:100898004E2C0030C8004808D3000030C300003098
:1008A800C2000030C1000030C0005108C80048082C
:1008B800D200872C531C612C622C6B2C5308C80067
:1008C8000310480C0138C9004908D3006D2C0310E7
:1008D800D30C401C702C712C722CD3170130C8001B
:1008E800430DC30CC20CC10CC00CC80B742C0130D6
:1008F800C8004808D2078312031351085202031C88
:10090800862C872C5E2C501B8A2C8B2CD62C5208BC
:10091800031D8F2C902C992C0030C3000030C2008E
:100928000030C1000030C000042E4408C00745084C
:1009380003110318013E0319A22CC107460803112D
:100948000318013E0319A92CC2074708031103180D
:10095800013E0319B02CC307431CB32CB42C8A2DB9
:10096800531CB72CB82CC12C5308C8000310480CD2
:100978000138C9004908D300C32C0310D30C401C0C
:10098800C62CC72CC82CD3170130C800430DC30C84
:10099800C20CC10CC00CC80BCA2C0130C8004808D6
:1009A800D2078A2D4308803AFF004708803A7F0221
:1009B800031DE82C46084202031DE82C45084102A5
:1009C800031DE82C440840020318EB2CEC2C442DA2
:1009D800FF30C800FF30C900FF30CA00FF30CB002D
:1009E8004408CC004508CD004608CE004708CF0093
:1009F8004008CC024108031C410F032D042DCD02F1
:100A08004208031C420F092D0A2DCE024308031C7D
:100A1800430F0F2D102DCF024C08C8074D0803189F
:100A28004D0F172D182DC9074E0803184E0F1D2DF1
:100A38001E2DCA074F0803184F0ACB074B08C300DF
:100A48004A08C2004908C1004808C0008030C800F0
:100A58004808D006D309D30A5308031D342D352D71
:100A6800522D0130C007003003180130C107003093
:100A780003180130C207003003180130C307522D94
:100A88004408C0024508031C450FC1024608031C60
:100A9800460FC2024708031C470FC302430842041B
:100AA80041044004031D592D5A2D862D5308031D5A
:100AB8005E2D5F2D862D0030C3000030C20000304F
:100AC800C1000030C000042E0130C8000310C00D62
:100AD800C10DC20DC30DC80B6A2DD31F742D752D02
:100AE800762D4014531C792D7A2D7D2D0314D30DAA
:100AF8007F2D0310D30D52080319832D842D862DC5
:100B08000130D202C21F892D8A2D682DD101D31F31
:100B18008E2D8F2D9D2D53087F390319942D952DDA
:100B2800982DD101D10A9D2D401C9B2D9C2D9D2DCA
:100B3800952D51080319A12DA22DD62D0130C007DE
:100B4800003003180130C107003003180130C20714
:100B5800003003180130C307431CB32DB42DD62D24
:100B68004008C8004108C9004208CA004308CB0031
:100B78000130CC004B0DCB0CCA0CC90CC80CCC0BEB
:100B8800BE2D4B08C3004A08C2004908C1004808E6
:100B9800C000520A0319D12DD22DD62D0130C8001C
:100BA8004808D207520A0319DA2DDB2DE02D520826
:100BB800031DDF2DE02DEE2D0030C3000030C200F4
:100BC8000030C1000030C0005208031DEC2DED2D8F
:100BD800EE2DD001521CF12DF22DF42DC217F82D57
:100BE8007F30C8004808C2055208C8000310480CE6
:100BF800C9004908C300D01F022E032E042EC317B4
:100C0800080083120313A000200803190C2E0D2ED0
:100C1800212EF51F102E112E212E7209A200730904
:100C2800A3007409A4007509A500A20A0319A30A60
:100C38000319A40A0319A50A292E7508A500740822
:100C4800A4007308A3007208A20075087404730452
:100C58007204031D302E312E3A2E0030F50000307C
:100C6800F4000030F3000030F200C02E9630F60099
:100C78007608A1004C2E0130F6007608A107013055
:100C88000310A50CA40CA30CA20CFF3E031D442EBC
:100C9800FE302505031D512E522E3F2E6E2E01309B
:100CA800F6007608A1070130A207003003180130CA
:100CB800A307003003180130A407003003180130DF
:100CC800A50701300310A50CA40CA30CA20CFF3E31
:100CD800031D662EFF302505031D732E742E532E1B
:100CE800802E0130A1020130F6000310A20DA30DE1
:100CF800A40DA50DF60B792EA41B832E842E8A2E07
:100D0800023021020318892E8A2E752E21188D2E65
:100D18008E2E962EFF30A205FF30A3057F30A40546
:100D2800FF30A5050310A10C2108F600F701F80112
:100D3800F90118300310F60DF70DF80DF90DFF3E07
:100D4800031D9E2E7608A2047708A3047808A4043D
:100D58007908A50420080319B22EB32EB82EF51F62
:100D6800B62EB72EB82EA5172508F5002408F400CE
:100D78002308F3002208F20008000A128A11EA2761
:100D88000A128A110A128A156C270A128A110A1283
:100D98008A155C270A128A1137300A128A158A279F
:100DA8000A128A114D300A128A158A270A128A11E4
:100DB800831203138C1EE12EE22EDC2E1F08C3398A
:100DC80004389F00413083120313E100E10BEA2E3F
:100DD800ED2E831203139F149F18F32EF42EF02E7A
:100DE8001E08E100E2016108E5006208E600660805
:100DF800E0006508DF000A128A15AB270A128A117B
:100E08008312031365089500413083120313E10030
:100E1800E10B0C2F0F2F831203131A08E10061084E
:100E2800E70031306706031D1A2F1B2F262F0130CC
:100E38000A128A158A270A128A11831203131508BF
:100E48009900D02E32306706031D2B2F2C2F3B2FF5
:100E58001C300A128A158A270A128A118312031370
:100E68008C1E372F382F322F1A088600D02E5F306D
:100E78000A128A158A270A128A11D02E0A128A1192
:100E88000C28031083120313560D570DD800580869
:100E9800DE005E08031D512F522F5B2F0030D70054
:100EA8000030D6000030D5000030D400C02F5408E0
:100EB800D8005508D9005608DA005708DB001F305B
:100EC8000310DB0CDA0CD90CD80CFF3E031D642F81
:100ED8005808DC005C08DD00D617FF30D405FF3069
:100EE800D505FF30D6050030D7059630DE02DE1F67
:100EF8007E2F7F2F992F5E08803A973E0318852F03
:100F0800862F872F522F01300310D70CD60CD50C03
:100F1800D40CFF3E031D882F0130D8005808DE0787
:100F2800031D972F982F872FB02F20305E02031CA8
:100F38009E2F9F2FAB2F522F0130D8000310D40DB6
:100F4800D50DD60DD70DD80BA22F0130DE025E08C5
:100F5800031DAF2FB02FA02F5D080319B42FB52F95
:100F6800C02FD409D509D609D709D40A0319D50A37
:100F78000319D60A0319D70A080083120313A40019
:100F8800A001A1017208F400F5017408A200750817
:100F9800A300241CD02FD12FD72F2208A007031875
:100FA800A10A2308A10701300310A20DA30DFF3EDB
:100FB800031DD82F0310A40C2408031DE42FE52FCC
:100FC800CD2F2108F3002008F20008008316031330
:100FD80086018312031386017030831603138F046E
:100FE8000F148B170C178B16831203130C1308009E
:1010000008308A000408840A8207003456346134A8
:101010006C346F3472342034643465346C3420346E
:1010200070346F34743465346E34633469346F34BF
:101030006D346534743472346F3420343D3420346C
:10104000003443346134723461346334743465344D
:101050007234203441347334633469346934203455
:10106000613420346D346F347334743472346134C9
:1010700072342E342E3400346C3429344C346534BC
:1010800065347234203450346F34743465346E34C3
:10109000633469346F346D346534743472346F344E
:1010A0000D34003432342934203445346E347634EF
:1010B0006934613472342034413453344334493414
:1010C000493420340D3400346534723472346F3452
:1010D0007234203461346C34203465346C346534BB
:0810E0006734693472340034F6
:101E9800831203130C1F512F522F552F86170C1323
:101EA8000C1271088A00700E8300FE0E7E0E090067
:101EB8000C30831603139900181283120313981712
:101EC800831603139816831203130C1218160800AE
:101ED80083160313851483160317881483120313B8
:101EE8001F083F3980389F00831603139F121F1263
:101EF8009F13831203131F08C33904389F001F144C
:101F08004230F200F20B862F00000800F3009E2FEB
:101F1800831203130C1E912F922F8C2F73088400A9
:101F28000A128A1500200A128A1599000130F20057
:101F38007208F307730884000A128A1500200A122F
:101F48008A15003A031DA92FAA2F8C2F0800831287
:101F580003135F08F2006008F3000030F31BFF3042
:101F6800F400F50001300A128A1105260A128A15B2
:101F7800750883120313AD007408AC007308AB0036
:101F88007208AA003F30A9004F30A800CF30A70040
:101F9800D030A6000A128A111C200A128A15831250
:101FA80003132908C7002808C6002708C500260803
:101FB800C4004230C3004030C2000030C1000030CD
:101FC800C0000A128A117D230A128A15831203138C
:101FD8004308D7004208D6004108D5004008D4007D
:101FE8000A128A1145270A128A1583120313550803
:081FF800E4005408E3000800B6
:08400000FF3FFF3FFF3FFF3FC0
:04400E00D520FF3F7B
:00000001FF
